:400000000080002011000000691000006910000080B500AF024A034B1B68136001F056F8BC760040FA46004010B5054C237833B9044B13B10448AFF300800123237010BDD6
:40004000C081FF1F00000000B8980000084B10B51BB108490848AFF300800848036803B910BD074B002BFBD0BDE81040184700BF00000000C481FF1FB8980000C880FF1F72
:4000800000000000B0B586B000AF03F03DFE002003F0A8FE00F0B0F8642005F019FC3E4B1B781A463D4B53F822307B820223FB6000237B81F86806F0B7FF04460D46384B80
:4000C0001B78184606F0B0FF02460B462046294605F08CFD03460C461846214607F0F2FA03467B7204F080FD7B890221184600F05BF87B7A7A8A02FB03F3184606F0A4FFE9
:4001000003460C461A4623464FF00000254907F02BF903460C461846214607F0F3FA03467B60786807F03EFB03467B617B69FA2B04DD7B69DA0F13445B107B61042003F08A
:4001400031FE7B699BB20021184600F02DF87B69DA0F13445B109BB20121184600F024F8002003F01FFE7B69DA0F13445B109BB20321184600F018F87B699BB204211846E1
:4001800000F012F8002003F02DFE00F041F800BF1837BD46B0BD00BF1882FF1FCC80FF1FB082FF1F0040BF4080B584B000AF03460A46FB8013467B71FB88DBB2184603F01E
:4001C00011FE642005F084FB04F054FD0346FB817B79B7F90610074A22F813107B790533B7F90E10034A22F8131000BF1037BD4680BD00BF5C82FF1F80B500AF002001F02C
:4002000013F801F041FA01F049F900BF80BD00BF80B500AF012001F007F801F01BFA01F023F903F085FD00BF80BD00BFB0B58AB002AF78608023FB734FF000034FF00004A3
:40024000C7E906347B6802331B782D2B38D103237B612BE07B697A6813441B782F2B22D97B697A6813441B78392B1CD84FF00002494BD7E9060106F04DFF03460C4625468A
:400280001C467B697A6813441B78303B184606F0DBFE02460B462046294606F089FD03460C46C7E906347B6901337B617B69072BD0DDBB69BB61FB6983F00043FB6131E0A7
:4002C00002233B612BE03B697A6813441B782F2B22D93B697A6813441B78392B1CD84FF000022D4BD7E9060106F014FF03460C4625461C463B697A6813441B78303B18467B
:4003000006F0A2FE02460B462046294606F050FD03460C46C7E906343B6901333B613B69062BD0DD4FF000021C4BD7E9060107F01BF803460C46184621464FF00002184B7E
:4003400006F036FD03460C461846214605F0FEFB03460C461846214607F0B4F90346FB73D7E9060107F086F901460E4BB3F900301A46FB7B019300920B460B4A40210B483C
:4003800007F0E6FE4021094800F020F8FB7B18462037BD46B0BD00BF000024400000304000006040B282FF1FC09800007082FF1F80B582B000AF0346FB71FB79184603F090
:4003C000D3FD00BF0837BD4680BD00BF80B582B000AF786039603B68002B03D1786807F0E9FE38603B689BB21946786801F0C4FD3B68402B09D100BF01F022FE0346002BA4
:40040000FAD00021002001F0B7FD00BF01F018FE0346002BFAD001F0E5FD00BF0837BD4680BD00BFB0B584B000AF78607B6802331B78303BFB7300F017FBFB7B012B0ED111
:40044000012003F057FE114A114B15461C460FCC28606960AA60EB6023782B740DE0002003F048FE094A0B4B15461C460FCC28606960AA60EB6023782B7440210348FFF7DB
:40048000A5FF00BF1037BD46B0BD00BF7082FF1F0099000014990000B0B582B000AF78607B6802331B78303BDAB2184B1A7000F0DBFA164B1B78012B03D0144B1B78022B89
:4004C0000DD1124B1B780021184604F0EDFD0F4B1B780F4A40210F4807F03AFE0DE00D4A0D4B15461C460FCC28606960AA60EB6003CC2861696123782B7640210548FFF7C8
:4005000065FF00BF0837BD46B0BD00BF0083FF1F289900007082FF1F4099000080B582B000AF78607B6804331B78303BDAB20E4B1A7000F099FA0C4B1B78184601F03AF87C
:40054000094B1B781A46094B53F82230084A4021084807F0FDFD40210648FFF737FF00BF0837BD4680BD00BF1882FF1FCC80FF1F5C9900007082FF1F90B583B000AF786051
:400580007B6806331B78303BDAB2164B1A7000F06BFA144B1B78184604F008FB114B1B78184606F041FD03460C461A4623464FF000004FF0804105F019FB03460C461846E8
:4005C000214607F07FF80346074A4021074807F0BFFD40210548FFF7F9FE00BF0C37BD4690BD00BFB082FF1F709900007082FF1F80B500AF00F00EFA00BF80BDB0B500AF28
:40060000094A0A4B14461D460FCD20606160A260E3600FCD20616161A261E36140210248FFF7D4FE00BFB0BD7082FF1F8899000090B400AF064B00221A70064A4FF000033B
:400640004FF00004C2E9003400BFBD4690BC7047B182FF1F3083FF1F98B500AF264B1B78032B3AD8012004F0DFFA0346002B41D004F03EFB03461A46204B1A601F4B1B6816
:40068000002B05DA1D4B1B681A461D4B1A6004E01A4B1B681A461A4B1A60194B1B68184606F0D2FC4FF00002164B06F05DFE03460C4618462146144B18CB1A46234606F09B
:4006C00077FB03460C46104AC2E900340A4B1B780133DAB2084B1A700CE0074B1B78042B08D10A4B01221A70034B1B780133DAB2014B1A7000BF98BDB182FF1F2883FF1FAF
:400700001483FF1F000010403083FF1F2C83FF1FB0B584B002AF03F0F7FD62B60121002001F00EF800F044F903F0CAFC002003F0E1FC00F05FFD012000F076FD8C4B0122F4
:400740001A708C4B01221A708B4B00221A708A4B1B78184600F02EFF884B80221A70874B1B781846FFF724FE854B00221A8000F03BF9844804F076FE834800F093FF04F007
:4007800033FA01F0ADF90346002B06D001F09CF90346002B01D001F09BFB01F095F90346002BEED001F03AFC0346002B00F0988000F066F9754801F055FC0346FB80FB88F0
:4007C000002BDED000BF01F03BFC0346002BFAD0FB8819466D4801F0CFFBFB88402B09D100BF01F02DFC0346002BFAD00021002001F0C2FB00BF01F023FC0346002BFAD0CE
:4008000001F0F0FB614B1B78423B162BB9D801A252F823F07108000083070000A3080000770800007F08000087080000D90800009508000083070000830700009B080000D6
:40084000D3080000830700008307000083070000830700008307000083070000830700008307000083070000830700008F080000FFF708FC7BE04548FFF70EFE77E04348DC
:40088000FFF74CFE73E04148FFF776FE6FE0FFF7AFFE6CE0FFF7B2FE69E03C48FFF7C2FD65E03A48FFF7C2FC03461A46334B1A70324B1B781846FFF77BFD304B1B789BB2E9
:4008C00003F578639BB21B019BB21AB22C4B1A804DE000F09FF84AE000F0A8F800BF46E02B4B1B78012B7FF44CAF012003F08EFD00F0A8F80021002003F018FD204BB3F90D
:400900000030244A1021244807F022FC224803F045FD0021012003F009FD204B18CB1846214606F0A7FE03461D4A10211D4807F00FFC1C4803F032FD00F096F8104BB3F98C
:4009400000301D46154B18CB1846214606F092FE034600932B46144A4021144807F0F8FB40211248FFF732FD094B00221A7008E7B082FF1F0083FF1F1882FF1F3883FF1FB3
:40098000B282FF1F3106000059060000B482FF1F2C83FF1FA89900001883FF1F3083FF1FB89900000483FF1FC49900007082FF1F80B500AF04F0D4FC03F0A6FC04F0EAFCE9
:4009C00003F068FE03F048FA03F0B0FB03F078FB03F0C8FE00F044FC00F076FD03F062F900F008FC00BF80BD80B500AF03F07AFE04F0F8FC03F044FA03F0A0FB03F054FF9F
:400A000000F042FC00F07CFD012000F00DFC00BF80BD00BF80B500AF03F022FB03F008FC00F022FD00F016FE00BF80BD80B500AF03F030FB03F016FC00F030FD00F024FE1A
:400A400000BF80BD80B500AF10220021044806F006FF10220021034806F001FF00BF80BD1883FF1F0483FF1F80B500AF40220021024806F0F4FE00BF80BD00BF7082FF1FAA
:400A800080B500AF40220021024806F0E8FE00BF80BD00BFB482FF1F80B582B000AF786039603A680021786806F0D9FE00BF0837BD4680BD80B584B000AFF860B9607A6002
:400AC0007A68B968F86806F0BFFE00BF1037BD4680BD00BF80B483B000AF0346FB71FEE780B582B000AF404B00221A803F4B50221A703F4B45F6BF521A803E4B18221A708B
:400B000004223D493D48FFF7D5FF3D4B06221A703C4B52221A703C4B3C4A1278D2B21A703B4B4FF4E1621A803A4B41F251221A800023FB7019237B6014E0FB785B00DAB2F8
:400B4000354B1B78DBB203F00103DBB21343DBB203F00303FB704FF4F07004F09DFF7B68013B7B607B68002B02D0FB78032BE4D17B68002B02D10320FFF7ACFF274B4FF44D
:400B800080721A80254B07221A70254B00221A70244B48221A70214B00221A70224B00221A70224B02221A70214B04221A70214A204B1B78DBB243F00303DBB213701E4AF8
:400BC0001D4B1B78DBB243F00103DBB213701B4A1A4B1B78DBB263F07F03DBB2137000BF0837BD4680BD00BF80400040824000408440004086400040DC0D0048004100409C
:400C00000043004000420040A14600400F01004922420040204200402542004004400040064000400840004009400040014000400B400040A2430040A1430040A0430040AF
:400C400080B483B000AF1D4B1B78FB711C4AFB7903F00703DBB213701A4AFB791B09DBB21370194B80221A70184B40221A70184B20221A70174B40221A70174B08221A7092
:400C8000164B20221A70164B81221A70154B40221A70154B20221A70144B28221A70144BF0221A70134B01221A70134B44221A7000BF0C37BD4680BC704700BFCF010049AA
:400CC0006E5800406F5800403C5100406C510040345A0040385A00408A5A0040985A0040D05A0040005B0040045B0040465B0040585B00405B5B00407658004080B485B042
:400D000000AF0346FB71FB79012202FA03F3FB73FB79012B33D81C4B1A78FB7B1340DBB2002B2CD1184B1A78FB7B1343DAB2164B1A70FB79154A52F82330FA79134951F876
:400D400022201178FA791248825C0A43D2B21A70FB79104AD35CBB73BB7B0F4AD35C002B06D10E4A0D4B1B7810210B43DBB21370BB7B094AD25C0132D1B2074AD15400BF43
:400D80001437BD4680BC7047DC81FF1FE0990000E8990000F4990000E081FF1F305A004080B485B000AF0346FB71FB79012202FA03F3FB73FB79012B39D81F4B1A78FB7BC0
:400DC0001340DBB2002B32D0FB7BDB43DAB21A4B1B781340DAB2184B1A70FB79174A52F82330FA79154951F822201178FA791448825CD243D2B20A40D2B21A70FB79114A3E
:400E0000D35CBB73BB7B104AD25C013AD1B20E4AD154BB7B0C4AD35C002B08D10B490B4B1A781023DB43DBB21340DBB20B7000BF1437BD4680BC7047DC81FF1FE099000034
:400E4000E8990000F4990000E081FF1F305A004080B483B000AF0346FB71FB79012B0ED8FB79094A52F82330FA79074951F822201178FA790548825C0A43D2B21A7000BFD7
:400E80000C37BD4680BC7047F8990000009A000080B483B000AF0346FB71FB79012B10D8FB790A4A52F82330FA79084951F822201178FA790648825CD243D2B20A40D2B238
:400EC0001A7000BF0C37BD4680BC7047F8990000009A000080B586B000AF72B64D4A4D4B1B78DBB243F00403DBB213700023FB7513E0FA7D13465B0013445B00464A134420
:400F00003B613B691A683B699B889BB219461046FFF7C2FDFB7D0133FB75FB7D0F2BE8D90023FB751CE0FA7D13469B0013445B003A4A1344FB60FB681B68BB60FB685B68D9
:400F40007B60FB681A7A5B7A1B0213437B807B881A467968B868FFF7ADFDFB7D0133FB75FB7D1F2BDFD92E4B0A221A702D4A2D4B1B78DBB243F00203DBB213702A4A2A4B53
:400F80001B78DBB243F00203DBB21370274A274B1B78DBB243F04003DBB21370244A244B1B78DBB243F01003DBB21370082221492148FFF77FFD0A2220492148FFF77AFD13
:400FC000082220492048FFF775FD08221F492048FFF770FD08221F491F48FFF76BFD1F4A1E4B1B78DBB243F00803DBB213701C4B61221A70FFF774FD194B81221A70FFF738
:401000001FFE0E2209491748FFF754FD00BF1837BD4680BDE8460040049A0000649A0000835800400350014013500140A0430040C2430040B00D004802510040B80D0048B3
:40104000F0510040C40D004812510040CC0D004822510040D40D0048625100402243004000480040B043004080B500AF06F0C0FB03461B680C2B00D1FEE7FEE780B584B047
:4010800000AF78600F4B1A687B6813441A460E4BD31A802B09DC0B4B1B68FB60094B1A687B681344074A136007E006F0A1FB02460C2313604FF0FF33FB60FB68184610371E
:4010C000BD4680BDEC80FF1F2884FF1F80B586B000AF224B7B61224B3B61204B7B6135E03B691B68FB603B695B68BB603B699B683B6000237B600CE0FB681A68BB681A60E2
:40110000BB680433BB60FB680433FB607B6804337B607A683B689A42EED13B69DB683B6000237B6008E0BB6800221A60BB680433BB607B6804337B607A683B689A42F2D17B
:401140003B6910333B617B69013B7B617B69002BC6D106F053FBFFF7DBFAFEE701000000309F000080B582B000AF184B184A1A60184A184B1B6843F40073136000237B60CE
:401180000FE07B68032B04D8134A7B6852F8233000E0124B12497A6841F822307B6801337B607B682F2BECD90E4B1B78DAB20E4B1A700E4B0A4A1A60FFF78CFE0C4B002202
:4011C0001A6000BF0837BD4680BD00BF0CED00E00004FA0514ED00E000000000691000000080FF1FBC760040C480FF1F08ED00E0C080FF1F80B582B000AF0023FB7106E012
:40120000FB791846FFF7CCFDFB790133FB71FB79012BF5D9034BFF221A7000BF0837BD4680BD00BFF080FF1F80B582B000AF0346FB710A4B1B78FF2B04D0084B1B78184622
:40124000FFF7AEFDFB791846FFF758FD034AFB79137000BF0837BD4680BD00BFF080FF1F80B500AF064B00221A70064B00221A70042000F05DF8002000F03AF800BF80BD5C
:401280002C5800402D58004080B400AF094A094B1B78DBB243F00803DBB21370064A064B1B78DBB243F00803DBB2137000BFBD4680BC7047A8430040B843004080B400AFA0
:4012C000094A094B1B78DBB223F00803DBB21370064A064B1B78DBB223F00803DBB2137000BFBD4680BC7047A8430040B843004080B483B000AF0346FB710C4A0B4B1B78E5
:40130000DBB223F00203DBB213700849074B1B78DAB2FB7903F00203DBB21343DBB20B7000BF0C37BD4680BC704700BF2C58004080B582B000AF0346FB710C4A0B4B1B785A
:40134000DBB223F00C03DBB213700849074B1B78DAB2FB7903F00C03DBB21343DBB20B7000F016F800BF0837BD4680BD2C58004080B483B000AF0346FB71044AFB7913707B
:4013800000BF0C37BD4680BC704700BF835B004080B483B000AF0B4B1B78DBB203F00C039B08DBB20633FB71074AFB7903F1924303F59C731B78DBB2137000BF0C37BD46B8
:4013C00080BC70472C5800400B46004080B400AF074B1B78DBB203F02003002B04D1054B1B78DAB2044B5A7000BFBD4680BC70472D580040835B0040E481FF1F80B400AFB4
:40140000154B1B78DBB203F02003002B1FD1134B1B78DBB203F00803002B14D00F4A0F4B1B78DBB223F00803DBB213700C4B0D4A52781A70094A094B1B78DBB243F0080368
:40144000DBB2137003E0064B064A52781A7000BFBD4680BC704700BF2D5800409F5A0040835B0040E481FF1F80B500AF094B1B78DBB203F00803002B03D0074B01221A701E
:4014800002E0054B00221A70FFF718FFFFF79EFF00BF80BDA8430040E481FF1F80B500AFFFF7ACFF064B1B78012B07D1FFF7ECFE044B1B78DBB21846FFF75AFF00BF80BD9F
:4014C000E481FF1F835B004080B500AF094B02221A70094B0C221A70084B01221A70002000F068F8032000F087F8022000F046F800BF80BD0C5800400D5800400E5800401C
:4015000080B400AF0D4A0D4B1B78DBB243F00803DBB213700A4A0A4B1B78DBB243F00803DBB21370074A074B1B78DBB263F07F03DBB2137000BFBD4680BC7047A94300400B
:40154000B94300407758004080B400AF094A094B1B78DBB223F00803DBB21370064A064B1B78DBB223F00803DBB2137000BFBD4680BC7047A9430040B943004080B485B0D3
:4015800000AF0346FB710A4B1B78DBB223F00303FB73FB7903F00303DAB2FB7B1343FB73034AFB7B137000BF1437BD4680BC70470D58004080B483B000AF0346FB71FB796E
:4015C000072B11D80B4A0B4B1B78DBB223F07003DBB213700749074B1B78DAB2FB791B01DBB21343DBB20B7000BF0C37BD4680BC704700BF0E58004080B483B000AF034677
:40160000FB71FB79032B11D80B4A0B4B1B78DBB223F00C03DBB213700749074B1B78DAB2FB799B00DBB21343DBB20B7000BF0C37BD4680BC704700BF0E58004080B400AFBB
:4016400000BFBD4680BC704780B400AF00BFBD4680BC704780B500AF094B1B78DBB203F00803002B05D0074B01221A70FFF76CFF02E0044B00221A70FFF7E0FF00BF80BDB9
:40168000A9430040E881FF1F80B500AFFFF7DCFF034B1B78012B01D1FFF732FF00BF80BDE881FF1F80B582B000AF786000F03CF8786800F009F8072000F018F800F028F81F
:4016C00000BF0837BD4680BD80B485B000AF7860054B1B68FB60FB684C337A681A6000BF1437BD4680BC704708ED00E080B483B000AF0346FB71054AFB795B01DBB2137081
:4017000000BF0C37BD4680BC704700BF03E400E080B400AF034B08221A6000BFBD4680BC704700BF00E100E080B400AF034B08221A6000BFBD4680BC704700BF80E100E097
:4017400080B582B000AF03460A46FB711346BB71094B1B78002B04D100F010F8064B01221A70BA79FB791146184600F0D9F800BF0837BD4680BD00BFEC81FF1F80B582B0E0
:4017800000AF04F091F90346FB71544A534B1B78DBB243F00103DBB21370514A504B1B78DBB243F00103DBB213704E4B01221A704D4B02221A704D4A4C4B1B78DBB203F03A
:4017C0007F03DBB21370002004F0A4F8484A484B1B78DBB223F00603DBB21370454A454B1B78DBB223F02003DBB21370404A404B1B78DBB243F00103DBB21370012004F020
:4018000089F8282004F086F83B4A3B4B1B78DBB203F07F03DBB21370374A374B1B78DBB223F04003DBB21370314A314B1B78DBB243F00203DBB21370022004F06BF82C4AE6
:401840002B4B1B78DBB243F00403DBB213702B4B00221A702A4B00221A70FB79184604F027F90721172004F091F82649172004F065F80721182004F089F82349182004F01F
:401880005DF80721152004F081F82049152004F055F80721002004F079F81D49002004F04DF80721012004F071F81A49012004F045F80721022004F069F81749022004F04E
:4018C0003DF807210C2004F061F814490C2004F035F800BF0837BD4680BD00BFA5430040B54300409D60004009600040106000409443004012600040F851004084600040FF
:401900008560004059280000412100004D28000065270000AD270000F9270000212C000080B584B000AF03460A46FB711346BB710023FB7306E0FB7B334A0121D154FB7B94
:401940000133FB73FB7B012BF5D9304AFB7913702F4B00221A702F4B00221A702E4B00221A702E4B00221A702D4B00221A702D4B00221A702C4B00221A702C4B4FF4000227
:401980001A602A4B4FF080721A60284B4FF400121A60264B01221A60244B02221A60234B04221A60BB79002B02D0012B09D011E01F4A1F4B1B78DBB223F00103DBB21370E1
:4019C00011E01B4A1A4B1B78DBB243F00103DBB2137008E0164A164B1B78DBB243F00103DBB2137000BF134B03221A70124B80221A70012004F050F8104B04221A7000BF39
:401A00001037BD4680BD00BFF083FF1F5583FF1F5883FF1F7483FF1F7783FF1F6C83FF1F7683FF1F7983FF1F5483FF1F00E100E009600040286000400860004012600040F4
:401A400080B483B000AF0023FB7106E0FB79144A0121D154FB790133FB71FB79012BF5D9104B00221A70104B00221A700F4B00221A700F4B00221A700E4B00221A700E4BC8
:401A800000221A700D4B00221A700D4B03221A700C4B80221A7000BF0C37BD4680BC7047F083FF1F5883FF1F7483FF1F7783FF1F6C83FF1F7683FF1F7983FF1F5483FF1F0A
:401AC000286000400860004080B400AF034B1B78DBB21846BD4680BC704700BF7783FF1F80B483B000AF0023FB71084B1B78DBB2002B05D0054B1B78FB71044B00221A7098
:401B0000FB7918460C37BD4680BC70477483FF1F80B483B000AF0346FB71FA79064913465B0013449B000B4401331B78DBB218460C37BD4680BC70477C83FF1F80B485B092
:401B400000AF0346FB710023FB81FB79002B1CD0FB79082B19D8104AFB791B0113441B78DBB29BB203F00F03FB81FB891B029AB20949FB791B010B4401331B78DBB29BB251
:401B80001343FB81FB89023BFB81FB8918461437BD4680BC704700BFFC5F0040B0B485B000AF03463960FB711346BB80FB79002B6DD0FB79082B6AD8B988FA79364813461F
:401BC0005B0013449B00034406331B889BB2C3F5007399420CD9FA792F4913465B0013449B000B4406331B889BB2C3F50073BB802A4CF979BB881B0A9BB2D8B2FA79264DC1
:401C000013465B0013449B002B4403331B78DBB20343DAB20B0123441A70204AFB79B988C9B21B01134401330A461A703B68002B13D00023FB810CE01948FB79FA8939681A
:401C40000A4412781B01034408331A70FB890133FB81FA89BB889A42EED3FA790E4913465B0013449B000B44013300221A700B48F979FA79084C13465B0013449B00234495
:401C800005331B78DAB20B01034402331A7000BF1437BD46B0BC70477C83FF1FFC5F00407060004080B584B000AF03463960FB711346BB803B68002B30D0FB79002B2DD05F
:401CC000FB79082B2AD8FB791846FFF737FF03461A46BB88934205D9FB791846FFF72EFF034600E0BB88BB800023FB810DE0FB893A6813440D49FA7912010A44083212780B
:401D0000D2B21A70FB890133FB81FA89BB889A42EDD3FB79184600F00BF801E00023BB80BB8818461037BD4680BD00BF7060004090B482B000AF0346FB71FB79002B1CD09F
:401D4000FB79082B19D8FA790E4913465B0013449B000B44013300221A700B48F979FA79084C13465B0013449B00234405331B78DAB20B01034402331A7000BF0837BD4629
:401D800090BC70477C83FF1FFC5F004080B582B000AF0023FB71314B1B79DBB2184600F067F80346BB712D4B1B78DBB25BB2002B15DA2A4B5B78DBB2212B00D048E0284BB9
:401DC00007221A80BA791346DB009B1A254A1344234A536000F02EFB0346FB7138E01F4B5B78DBB2202B02D0222B1AD030E01C4B07221A80BA791346DB009B1A194A13440A
:401E0000174A5360BB79BA7917498A5CD2B242F00102D1B2144AD15400F08AFB0346FB7116E0BB790D4A9278D2B291B20F4A22F81310BB79BA790C498A5CD2B242F00202B4
:401E4000D1B2094AD15400F011FC0346FB7100BFFB7918460837BD4680BD00BF006000406083FF1FF480FF1F3C83FF1F5083FF1F80B485B000AF0346FB710023FB73FF2365
:401E8000BB7317E0FB7B104AD35C7B737A7B0F4913465B0013449B000B440A331B78DBB2FA799A4203D1FB7BBB730223FB73FB7B0133FB73FB7B012BE4D9BB7B18461437C1
:401EC000BD4680BC704700BF4483FF1F7C83FF1F80B582B000AF0023BB71224B00221A70214B00221A70204B00225A700023FB7110E0FB791D4AD35C7B717B79002B06D0D4
:401F00007B79082B03D87B791846FFF711FFFB790133FB71FB79012BEBD9154B1B78DBB2002B18D0114B1B78DBB2002B13D0114B1B78DBB2002B0ED00D4B1B78DBB2082B82
:401F400009D80A4B1B78DBB2082B04D8094B1B78DBB2082B01D90123BB71BB7918460837BD4680BDED81FF1F3C83FF1F4883FF1F4083FF1F4483FF1F80B584B000AF786012
:401F80000B467B80144B1B781A46144B9B5CFB73FA7B134913465B0013449B000B4408331B889BB27A889A420CD9FA7B0C4913465B0013449B000B4408331B887B80002053
:401FC00003F07AFC7A88FB7B79681846FFF7E6FD00BF1037BD4680BDED81FF1F4083FF1F7C83FF1F80B582B000AF094A3B1D12881A80084B1B781A46074B9B5CDBB2391DB1
:4020000002221846FFF7CAFD00BF0837BD4680BDA49B0000ED81FF1F4083FF1F80B500AF054B1B781A46054B9B5CDBB21846FFF76FFD0346184680BDED81FF1F4883FF1F63
:4020400080B500AF054B1B781A46054B9B5CDBB21846FFF75DFD0346184680BDED81FF1F4083FF1F80B584B000AF78600D4B1B781A460D4B9B5CFB73FA7B0C4913465B00F0
:4020800013449B000B4408331B889AB2FB7B79681846FFF707FE0346BB81BB8918461037BD4680BDED81FF1F4883FF1F7C83FF1F80B485B000AF78600B46FB701346BB7095
:4020C0007B68DB7803F00303FB737B689B785BB2002B1ADAFB7B032B0AD0BB7803F001031449FA78CA54BB7843F00103BB701BE0BB789B08DBB203F001030F49FA78CA54BA
:40210000BB7843F00403BB700EE0FB7B032B0BD0BB785B08DBB203F001030849FA78CA54BB7843F00203BB70BB7818461437BD4680BC70474083FF1F4483FF1F4883FF1F88
:4021400080B582B000AF374B1B78BB71BB7903F01003002B62D00123FB7197F90630002B12DABB7903F00F03012B02D00023FB711CE000F061F82C4B1B78DBB25BB2002B2A
:4021800014DA0023FB7111E0BB7903F04003002B02D000F095F809E0BB7903F02003002B02D000F0B3F801E00023FB71FB79002B34D01C4B1B78BB7197F90630002B2DDBD0
:4021C0001A4B1B78DAB21A4B1B78DBB21343BB71184ABB791370174B1B78DBB2BA799A421CD1114B1B78FB710E4B1B78DBB223F07F03BB71BB79002B0AD10A4B0A4A1278BB
:40220000D2B21A70074B1B78DBB203F00F03FB71054B1B78DBB2FA799A42E2D100BF0837BD4680BD286000407583FF1FEA83FF1F7883FF1F2960004080B582B000AF1D4B34
:402240001B78FB711B4AFB7913701A4B1B78FB7197F90730002B03DA174AFB79137025E0022000F045FA154B1B78DBB203F06003202B08D0402B0BD0002B0ED100F0D6FC17
:402280000346FB710CE003F017FC0346FB7107E001F0DEFC0346FB7102E00023FB7100BFFB79002B02D1044B03221A7000BF0837BD4680BD286000407583FF1F00600040FF
:4022C00080B500AF104B1B78DBB2062B19D801A252F823F00323000003230000F122000003230000F722000003230000FD22000000F0F8F806E000F0A7F903E000F0D2F986
:4023000000E000BF00BF80BD5883FF1F80B500AF124B1B78DBB2062B1DD801A252F823F057230000572300003D2300005723000043230000572300004923000000F0D8F8A8
:402340000AE000F027F907E0032000F0D1F9044B03221A7000E000BF00BF80BD5883FF1F7583FF1F80B483B000AF0023FB71294B1B78DBB29AB2284B1B889BB213449AB26C
:40238000254B1A8015E02549FB79254A52681278D2B2CA54224B5B680133214A5360FB790133FB711E4B1B889BB2013B9AB21C4B1A801B4B1B889BB2002B02D0FB79072B76
:4023C000E1D9144B1B78DBB2082B02D0FB79002B0FD0144B1B78DBB283F07F03DB43DAB2104B1A70104B0F221A70104B02221A7005E00D4B02221A700C4B02221A700C4AB9
:40240000FB791370034AFB79137000BF0C37BD4680BC70475483FF1F5683FF1F006000406083FF1FEA83FF1F7583FF1F5883FF1F7883FF1F80B582B000AF164B1B889BB2C2
:40244000002B02D100F02EF81EE0134B02221A70124B00221A7000F06BF9114BDB79DBB29BB21B029AB20E4B9B79DBB29BB21343FB80084B1B889BB2FA889A4202D2054A12
:40248000FB881380FFF76EFF012318460837BD4680BD00BF6083FF1F5883FF1FEA83FF1F0060004080B400AF094B02221A70094B80221A70084B0F221A70084B00221A704C
:4024C000074B00221A7001231846BD4680BC70475883FF1FEA83FF1F7583FF1F5483FF1F7883FF1F80B500AFFFF73CFF00BF80BD80B500AF0A4B1B78DBB29AB2094B1B8811
:402500009BB213449AB2074B1A80074B00221A70012000F0EDF8054B03221A7000BF80BD5483FF1F5683FF1F5883FF1F7583FF1F80B582B000AF124B04221A70114B8022B4
:402540001A7000F0F5F8104BDB79DBB29BB21B029AB20D4B9B79DBB29BB21343FB800B4B1B889BB2FA889A4202D2084AFB881380074B0B221A70012318460837BD4680BD01
:402580005883FF1FEA83FF1F006000406083FF1F7583FF1F80B483B000AF0023BB71234B1B78DBB203F00F03DBB2023BFB71FB799AB21F4B1B889BB213449AB21C4B1A80F4
:4025C00018E01C4B5B681C49BA798A5CD2B21A70184B5B680133174A5360BB790133BB71FB79013BFB71134B1B889BB2013B9AB2104B1A800F4B1B889BB2002B02D0FB7989
:40260000002BDED10D4AFB7913700D4B1B78DBB283F07F03DB43DAB2094B1A70094B0B221A7000BF0C37BD4680BC7047296000405683FF1F6083FF1F006000407883FF1F00
:40264000EA83FF1F7583FF1F80B500AF054B00221A70012000F04CF8034B03221A7000BF80BD00BF5883FF1F7583FF1F80B400AF084B06221A70084B06221A70074B8022DC
:402680001A70074B00221A7001231846BD4680BC704700BF5883FF1F7583FF1FEA83FF1F7883FF1F80B500AF0D4B1B78DBB2002B0AD00C4A0A4B1B78DBB263F07F03DBB21A
:4026C0001370074B00221A70074B00221A70012000F00EF8054B03221A7000BF80BD00BF7683FF1F086000405883FF1F7583FF1F80B483B000AF0346FB710B4B9B68002B6D
:402700000CD0094B9B68FA791A70074B9B68074A128892B25A80044B00229A6000BF0C37BD4680BC704700BF6083FF1F5683FF1F80B400AF094B00221A80094B9B68002B7C
:4027400007D0074B9B6800221A70054B9B6800225A8000BFBD4680BC704700BF5683FF1F6083FF1F80B400AF0D4B01221A700D4B9B7C0D4B1B7BDBB203F00303012B08D0F7
:40278000094BDB7BDBB283F07F03DB43DAB2064BDA73054B01225A7300BFBD4680BC70470B600040FC5F00407C83FF1F80B400AF0E4B02221A700E4B93F822300D4B1B7E3C
:4027C000DBB203F00303012B08D00A4BDB7EDBB283F07F03DB43DAB2064BDA76054B01225A7600BFBD4680BC704700BF0B600040FC5F00407C83FF1F80B400AF104B042256
:402800001A70104B93F832300F4B93F82430DBB203F00303012B0AD00B4B93F82730DBB283F07F03DB43DAB2074B83F82720064B012283F8252000BFBD4680BC704700BFE1
:402840000B600040FC5F00407C83FF1F80B400AF00BFBD4680BC704780B500AFFFF7F0F800BF80BD80B582B000AF0023FB71714B1B79BB716F4B1B78DBB25BB2002B6CDA26
:402880006C4B5B78DBB2013B052B00F2BE8001A252F823F0F7280000112900003B2900000B2A00000B2A0000AD280000614BDB78DBB2212B0CD100F0C7F85F4B1B889BB26B
:4028C000002B00F0A480FFF7B5FD0346FB719EE0584BDB78DBB2222B40F0998000F0F2F8554B1B889BB2002B00F09180FFF7A2FD0346FB718BE000F02DF94F4B1B889BB2BA
:40290000002B00F08680FFF795FD0346FB7180E0BB79012B7FD8474B9B78DBB2002B7AD1454B01221A80BB79444A1344424A5360FFF780FD0346FB716DE0BB79012B6CD8BC
:402940003D4B01221A80BB793D4A13443A4A5360FFF770FD0346FB715FE0364B5B78DBB20A2B10D00B2B3DD0092B00D05CE000F0F1F8314B1B889BB2002B50D0FFF7D8FD9E
:402980000346FB714BE0BB79012B4AD8294B9B78DBB2002B45D1BB79264AD278D1B2274AD154BB79254AD35CDAB2BB792549CB5CDBB29A4204D2BB79224A0021D1540CE021
:4029C000BB79204AD35CDBB2012B06D9BB79BA791A498A5CD1B21B4AD154FFF747FE0346FB711EE0BB79012B1DD8124B9B78DBB2012B18D8BB790F4A9278D1B2104AD154C0
:402A0000FFF734FE0346FB710DE000BF0CE000BF0AE000BF08E000BF06E000BF04E000BF02E000BF00E000BFFB7918460837BD4680BD00BF006000406083FF1FF883FF1F40
:402A4000F083FF1FF483FF1F80B584B000AF194B1B78DBB2013BDBB2184600F041FFF860154B1B79FB72FB7A0233DB00FA681344FB60FB685B68FB60FB7A104AD35CDBB2DF
:402A8000DB00FA681344FB60FB685B68FB60FB682033FB60FB685B687B607B681B78DBB29AB2074B1A80064A7B68536000BF1037BD4680BD7783FF1F00600040E883FF1FEC
:402AC0006083FF1F80B584B000AF1E4B1B78DBB2013BDBB2184600F003FFF8601A4B1B79FB72FB7A0233DB00FA681344FB60FB685B68FB60FB7A154AD35CDBB2DB00FA6876
:402B00001344FB60FB685B68FB60FB681833FB60FB685B687B607B6801331B78DBB29BB21B029AB27B681B78DBB29BB213439AB2074B1A807B680233054A536000BF10376D
:402B4000BD4680BD7783FF1F00600040E883FF1F6083FF1F80B584B000AF2D4B00221A802C4B1B78DBB2013BDBB2184600F0B8FEF860294BDB78FB72274B1B79BB72BB7A2F
:402B80000233DB00FA681344FB60FB685B68FB60BB7A012B38D8BB7A204AD35CDBB2DB00FA681344FB60FB685B68FB60FB7A002B2AD0FB7A032B27D8FB7A03F10053013B00
:402BC000DB00FA681344FB60134B9B78FB72FB681B78FA7A9A4217D8FB685B687B60FA7A13465B0013449B001A467B6813447B607B685B68064A53607B681A88044B1A802C
:402C00007B689B68024A936000BF1037BD4680BD6083FF1F7783FF1F00600040E883FF1F80B500AF02F06CFC00BF80BD80B586B000AF0023FB759D4B1B78FB7100233B615A
:402C40009B4B00221A8097F90730002B80F20481964B5B78DBB20A2B00F21B8201A252F823F000BFAF2D00009330000093300000933000009330000093300000912C00009D
:402C800093300000232E000093300000392E0000864BDB78DBB2012B0ED100F049FEB860BB685B68824A5360814B12221A80FFF7C1FB0346FB75EEE17C4BDB78DBB2022BBE
:402CC00025D17A4B9B78DBB2184600F009FEB860BB68002B00F0DF81BB685B68744A5360734B5B6803331B78DBB29BB21B029AB26F4B5B6802331B78DBB29BB213439AB2C9
:402D00006B4B1A80FFF796FB0346FB75C3E1674BDB78DBB2032B45D10023FB73654B3B6109E03B691B78BB71BB793A6913443B61FB7B0133FB735D4B9B78DBB2FA7B9A42E5
:402D400004D23B691B78DBB2002BEAD1574B9B78DBB2EE2B01D1584B3B61544B9B78DBB2002B0BD0514B9B78DAB2544B1B7C9A4204D1534800F0ACF9514B3B613B691B7861
:402D8000DBB2002B00F087813B691B78DBB29AB2474B1A80464A3B695360FFF74BFB0346FB7578E102F088FE0346FB7573E1FB7903F00303002B20D0022B00D030E03C4B51
:402DC00002221A80394B1B79DBB203F07F023D4913465B0013449B000B4402331B78DAB2394B1A70384B00225A70314B364A5A60FFF720FB0346FB7512E02D4B02221A8008
:402E0000324B1B78DAB2304B1A702F4B00225A70274B2D4A5A60FFF70DFB0346FB7500BF40E1234B01221A80214B294A5A60FFF701FB0346FB7535E11D4B01221A801B4B41
:402E40001B79DBB21A46234B1344194A5360FFF7F1FA0346FB7525E1144B5B78DBB2013B0A2B00F21A8101A252F823F0772F00009B300000053000009B300000992E000061
:402E80009B3000009B3000009B300000DD2E00009B300000332F0000044B9B78DAB20E4B1A70FFF7E3FB0346FB75FBE0006000406083FF1F149C0000549D0000BC9B0000A7
:402EC0000084FF1F7C83FF1FF081FF1F7983FF1F7783FF1FE883FF1F7683FF1F744B9B787B717B79002B06D07B79013BDBB2184600F0F6FCB8607B79002B02D0BB68002BAB
:402F000003D17B79002B40F0CA806A4B1B78DBB27A799A4208D0674A7B791370664B01221A70012000F0DCF9FFF7A0FB0346FB75B5E000F055FE0346002B00F0B2805C4BDD
:402F40001B793B715A4B1B79DAB25C4B1A703B795B4AD35CDAB23B795A49CB5CDBB29A4204D0554B01221A7000F08CFBFFF77EFB0346FB7595E0FB7903F00303012B20D062
:402F8000012B0CD3022B00D03BE0494B9B78DBB2002B31D100F078FD0346FB752CE0444B9B78DBB2012B29D1474B1B78DBB223F00203DAB2444B1A70FFF758FB0346FB759D
:402FC0001CE03B4B1B79DBB2012B19D8384B9B78DBB2DB43DBB2364A1279D2B2114610463A4A125CD2B21340DAB2384B5A54FFF73DFB0346FB7503E000BF53E000BF51E0D5
:4030000000BF4FE0FB7903F00303012B20D0012B0CD3022B00D03BE0254B9B78DBB2002B31D100F0BDFC0346FB752CE0204B9B78DBB2012B29D1244B1B78DBB243F0020353
:40304000DAB2214B1A70FFF711FB0346FB751CE0174B1B79DBB2012B19D8154B9B78DBB2DB43DBB2124A1279D2B211461046174A125CD2B21340DAB2144B5A54FFF7F6FA8F
:403080000346FB7503E000BF0CE000BF0AE000BF08E000BF06E000BF04E000BF02E000BF00E000BFFB7D18461837BD4680BD00BF006000407783FF1F7483FF1F6C83FF1F34
:4030C0005C83FF1FE883FF1F7983FF1FEC83FF1FB0B58AB000AF7860324B07F114041D460FCD0FC42B682370002387F826307B68002B52D07B6822221A707B6801330322A3
:403100001A7007F10C03184602F064FC022387F827303EE097F827307A68134497F8262007F128010A4412F81C2C1209D2B207F128010A4412F8142C1A7097F82730013384
:403140007A68134400221A7097F8273002337A68134497F8262007F128010A4412F81C2C02F00F0207F128010A4412F8142C1A7097F8273003337A68134400221A7097F8AA
:403180002630013387F8263097F82730043387F8273097F82730212BBCD900BF2837BD46B0BD00BFA89B000090B482B000AF0123FB7180E0464AFB791B0113440C221A7022
:4031C000FA79444913465B0013449B000B4405331B78DBB2002B1CD0FA793E4913465B0013449B000B4404331B78DBB25BB2002B07DA394AFB791B01134402330C221A70B5
:403200000EE0354AFB791B011344023308221A7006E0314AFB791B011344023380221A702B48F979FA792B4C13465B0013449B00234406331B889BB2DAB20B01034406338B
:403240001A702348F979FA79224C13465B0013449B00234406331B889BB21B0A9BB2DAB20B01034407331A701948F979FA79194C13465B0013449B00234406331B889BB2DA
:40328000DAB20B01034404331A701148F979FA79104C13465B0013449B00234406331B889BB21B0A9BB2DAB20B01034405331A70FB790133FB71FB79082B7FF67BAF074BDF
:4032C000FF221A7000BF0837BD4690BC704700BF706000407C83FF1FFC5F00400A60004080B58AB000AF0346FB7100237B84002387F8273050E097F82720B34913465B004A
:4033000013449B000B4400221A7097F82720AE4913465B0013449B000B44023300221A7097F82720A84913465B0013449B000B44033300221A7097F82720A34913465B00E9
:4033400013449B000B44083300221A8097F827209D4913465B0013449B000B440A3300221A7097F82720984913465B0013449B000B44013300221A7097F8272092491346E5
:403380005B0013449B000B44053300221A7097F82730013387F8273097F82730082BAAD9FB79002B16D0002387F825300EE097F82530864A0021D15497F82530844A0021CA
:4033C000D15497F82530013387F8253097F82530012BECD97F4B1B78DBB2002B00F04A810023FB767B4B1B78DBB2013BDBB2184600F076FA78617B695B683B613B6907331C
:403400001B7803F04003002B08D0734B1B78DBB243F00103DAB2704B1A7007E06E4B1B78DBB223F00103DAB26B4B1A707B6908337B617B691B7887F82730012387F82530F7
:40344000B6E07B695B68FB61002387F82630A3E097F82520FB699B7803F07F039A4240F0938097F82520584913465B0013449B000B4408331B889AB2FB699B889A420CD284
:4034800097F82520FB6998884F4913465B0013449B000B44083302461A80FB691B781A464A4B9B5CDAB2FB695B789A426CD197F82520FB699878444913465B0013449B00D0
:4034C0000B44043302461A7097F82520FB69D8783D4913465B0013449B000B4402461A70FB69DB7803F00303FB73FB699B785BB2002B1CDA97F82520FB7B012B01D107206D
:4035000000E00D20304913465B0013449B000B44053302461A7097F825202B4913465B0013449B000B44013301221A701BE097F82520FB7B012B01D1052000E0092022490C
:4035400013465B0013449B000B44053302461A7097F825201C4913465B0013449B000B44013300221A70FB699B790A2B03D0FB699B79022B08D1FA7E97F825301946F86924
:40358000FEF796FD0346FB76FB690833FB6197F82630013387F8263097F8262097F827309A42FFF455AF97F82530013387F8253097F82530082B7FF644AF7B695B68FB61E4
:4035C000002387F8253020E07C83FF1FE883FF1F5C83FF1F7783FF1F7983FF1FFB699B7803F07F02FB691878244913465B0013449B000B440A3302461A70FB690833FB61B4
:4036000097F82530013387F8253097F8252097F827309A42E2D300F09DF90246184B1A6000237B84012387F827301DE097F82720124913465B0013449B000B4406337A8C2A
:403640001A8097F827200D4913465B0013449B000B4408331B889AB27B8C13447B8497F82730013387F8273097F82730082BDDD9FFF79AFD00BF2837BD4680BD7C83FF1F41
:403680007083FF1F90B585B000AF8F4B1B78DBB2002B00F015818C4B1B78DBB2013BDBB2184600F01DF978607B6808337B607B681B78FB707B685B68BB60844B1B78BB7001
:4036C0000023FB73F7E0BB681B78BA789A4240F0EC80BB787E4AD35CDAB2BB685B789A4240F0E380BB689B7803F07F037B70BB68DB7803F003033B707A78764913465B00D2
:4037000013449B000B44033300221A707A78BB689878704913465B0013449B000B44043302461A707A78BB68D8786A4913465B0013449B000B4402461A707A78BB68988876
:40374000644913465B0013449B000B44083302461A80BB689B785BB2002B1ADA7A783B78012B01D1072000E00D205A4913465B0013449B000B44053302461A707A7855491F
:4037800013465B0013449B000B44013301221A7019E07A783B78012B01D1052000E009204C4913465B0013449B000B44053302461A707A78474913465B0013449B000B445E
:4037C000013300221A70444A7B781B011344023301221A70404879787A783E4C13465B0013449B00234408331B889BB21B0A9BB2DAB20B0103441A70374879787A78354C28
:4038000013465B0013449B00234408331B889BB2DAB20B01034401331A70304879787A782C4C13465B0013449B00234406331B889BB2DAB20B01034406331A7027487978A8
:403840007A78244C13465B0013449B00234406331B889BB21B0A9BB2DAB20B01034407331A701E4879787A781A4C13465B0013449B00234406331B889BB2DAB20B010344D7
:4038800004331A70154879787A78124C13465B0013449B00234406331B889BB21B0A9BB2DAB20B01034405331A70BB680833BB60FB7B0133FB73FA7BFB789A42FFF403AF66
:4038C00000BF1437BD4690BD7783FF1F6C83FF1FE883FF1F7C83FF1FFC5F00407060004080B485B000AF0346FB710F4B1B78DBB20E4ADB0013445B68FB60FB681033FB6008
:40390000FB681B78FA799A4202D30023FB6005E0FB79DB00FA6813445B68FB60FB6818461437BD4680BC70475583FF1F4C9D000080B400AF054B1B78DBB2054ADB0013442F
:403940005B681846BD4680BC704700BF5583FF1F4C9D000080B584B000AF104B1B78DBB2013BDBB21846FFF7BBFFB860BB68002B0DD0BB685B681B79FB71FB790233DB007B
:40398000BA681344BB60BB685B68FB6001E00023FB60FB6818461037BD4680BD7783FF1F80B582B000AF0023FB71344B1B79DBB203F07F03BB71BB79002B5AD0BB79082B9D
:4039C00057D8BA79B9792E480B465B000B449B00034402331B78DBB243F00103D8B2284913465B0013449B000B44023302461A70BA79234913465B0013449B000B44033393
:403A000000221A70BA79B9791D480B465B000B449B00034401331B78DBB243F00203D8B2174913465B0013449B000B44013302461A70BA79124913465B0013449B000B443F
:403A400004331B78DBB25BB2002B07DA0D4ABB791B01134402338D221A7006E0094ABB791B011344023389221A70FEF7FFFD0346FB71FB7918460837BD4680BD0060004089
:403A80007C83FF1FFC5F004080B582B000AF0023FB71504B1B79DBB203F07F03BB71BB79002B00F09280BB79082B00F28E80BA79B97949480B465B000B449B00034402337C
:403AC0001B78DBB223F00103D8B2434913465B0013449B000B44023302461A70BA793E4913465B0013449B000B44033300221A703A49BB793948BA79120102441278D2B21A
:403B000002F07F02D2B21B010B441A70BA79B97931480B465B000B449B00034401331B78DBB223F00203D8B22B4913465B0013449B000B44013302461A70BA79264913467E
:403B40005B0013449B000B4404331B78DBB25BB2002B1BDABA79204913465B0013449B000B4401331B78DBB2012B07D11B4ABB791B01134402330C221A7022E0174ABB79AC
:403B80001B01134402330D221A701AE0BA79124913465B0013449B000B4401331B78DBB2012B07D10D4ABB791B011344023308221A7006E0094ABB791B01134402330922A8
:403BC0001A70FEF753FD0346FB71FB7918460837BD4680BD006000407C83FF1FFC5F004080B584B000AF0023FB73154B1B79BB73144B1B78DBB2013BDBB21846FFF770FEC3
:403C0000B860BB685B681B79FB71BA7BFB799A4202D9BB7B022B0ED8BB7BBA7B0A498A5CD1B20A4AD154BB7B054A9278D1B2064AD1540123FB73FB7B18461037BD4680BDC9
:403C4000006000407783FF1FE883FF1F5C83FF1F80B582B000AF0023FB710F4B1B78DBB25BB2002B12DA0C4B5B78DBB2012B00D00CE00A4B0A4A5A60094B1B789AB2074B3C
:403C80001A80FEF7D7FB0346FB7100BFFB7918460837BD4680BD00BF006000406083FF1F689D000080B500AF084B10221A70084B00221A70064B064A1278D2B21A7002202C
:403CC00000F050F800F09EF800BF80BD285800402958004080B400AF094A094B1B78DBB243F00403DBB21370064A064B1B78DBB243F00403DBB2137000BFBD4680BC7047D5
:403D0000A8430040B843004080B500AF074B1B78002B04D1FFF7C6FF044B01221A70FFF7D9FF782000F05EF800BF80BDF281FF1F80B400AF094A094B1B78DBB223F00403A0
:403D4000DBB21370064A064B1B78DBB223F00403DBB2137000BFBD4680BC7047A8430040B843004080B483B000AF0346FB710C4A0B4B1B78DBB223F00203DBB2137008491D
:403D8000074B1B78DAB2FB7903F00203DBB21343DBB20B7000BF0C37BD4680BC704700BF2858004080B582B000AF0346FB710C4A0B4B1B78DBB223F00403DBB213700849B2
:403DC000074B1B78DAB2FB7903F00403DBB21343DBB20B7000F016F800BF0837BD4680BD2958004080B483B000AF0346FB71044AFB79137000BF0C37BD4680BC704700BF35
:403E0000825B004080B483B000AF104B1B78DBB203F00C035B08FB710D4B1B78DBB203F00403DBB2002B02D0FB790133FB71094AFB7903F1924303F594731B78DBB21370C1
:403E400000BF0C37BD4680BC704700BF28580040295800400A46004080B500AF064B00221A70064B00221A70042000F05DF8002000F03AF800BF80BD24580040255800407C
:403E800080B400AF094A094B1B78DBB243F00203DBB21370064A064B1B78DBB243F00203DBB2137000BFBD4680BC7047A8430040B843004080B400AF094A094B1B78DBB242
:403EC00023F00203DBB21370064A064B1B78DBB223F00203DBB2137000BFBD4680BC7047A8430040B843004080B483B000AF0346FB710C4A0B4B1B78DBB223F00203DBB25A
:403F000013700849074B1B78DAB2FB7903F00203DBB21343DBB20B7000BF0C37BD4680BC704700BF2458004080B582B000AF0346FB710C4A0B4B1B78DBB223F00C03DBB22C
:403F400013700849074B1B78DAB2FB7903F00C03DBB21343DBB20B7000F016F800BF0837BD4680BD2458004080B483B000AF0346FB71044AFB79137000BF0C37BD4680BC52
:403F8000704700BF815B004080B483B000AF0B4B1B78DBB203F00C039B08DBB20633FB71074AFB7903F1924303F598731B78DBB2137000BF0C37BD4680BC70472458004024
:403FC0000946004080B400AF074B1B78DBB203F02003002B04D1054B1B78DAB2044B5A7000BFBD4680BC704725580040815B0040F481FF1F80B400AF154B1B78DBB203F0C8
:404000002003002B1FD1134B1B78DBB203F00803002B14D00F4A0F4B1B78DBB223F00803DBB213700C4B0D4A52781A70094A094B1B78DBB243F00803DBB2137003E0064B6B
:40404000064A52781A7000BFBD4680BC704700BF255800408F5A0040815B0040F481FF1F80B500AF094B1B78DBB203F00203002B03D0074B01221A7002E0054B00221A7068
:40408000FFF718FFFFF79EFF00BF80BDA8430040F481FF1F80B500AFFFF7ACFF064B1B78012B07D1FFF7ECFE044B1B78DBB21846FFF75AFF00BF80BDF481FF1F815B004092
:4040C00080B582B000AF0023FB7106E0FB791846FCF7DEFEFB790133FB71FB79012BF5D9034BFF221A7000BF0837BD4680BD00BF0E81FF1F80B582B000AF0346FB710A4B4F
:404100001B78FF2B04D0084B1B781846FCF7C0FEFB791846FCF79CFE034AFB79137000BF0837BD4680BD00BF0E81FF1F80B500AF032000F051F800BF80BD00BF80B400AFCE
:404140000D4A0D4B1B78DBB243F06003DBB213700A4A0A4B1B78DBB243F00803DBB21370074A074B1B78DBB243F00803DBB2137000BFBD4680BC704777580040A4430040B7
:40418000B443004080B400AF104A104B1B78DBB223F00803DBB213700D4A0D4B1B78DBB223F00803DBB21370084B1B78DBB2002B07D1084A074B1B78DBB223F06003DBB2A8
:4041C000137000BFBD4680BC704700BFA4430040B44300407758004080B483B000AF0346FB710C4A0B4B1B78DBB223F00303DBB213700849074B1B78DAB2FB7903F003036C
:40420000DBB21343DBB20B7000BF0C37BD4680BC704700BF5E58004080B400AF00BFBD4680BC704780B400AF00BFBD4680BC704780B500AF094B1B78DBB203F00803002B35
:4042400005D0074B01221A70FFF79CFF02E0044B00221A70FFF7E0FF00BF80BDA4430040F881FF1F80B500AFFFF7DCFF034B1B78012B01D1FFF762FF00BF80BDF881FF1FEF
:4042800080B500AF282001F023FB032000F0D0F9052001F01DFB032000F0CAF90F2001F017FB032000F0C4F9012001F011FB022000F0BEF9052001F00BFB062000F0A6F82A
:4042C0000E2000F0A3F82C2000F0A0F8082000F09DF8012000F09AF80C2000F097F8032000F094F8052001F0F3FA00BF80BD00BF80B500AF0C2000F089F8024B01221A705E
:4043000000BF80BDF981FF1F80B500AF064B1B78002B04D1FFF7B4FF034B01221A70FFF7E7FF00BF80BD00BFFA81FF1F80B582B000AF03460A46FB711346BB71FB79032B0B
:4043400026D801A252F823F059430000674300007543000083430000BB79803BDBB2184600F054F815E0BB79403BDBB2184600F04DF80EE0BB796C3BDBB2184600F046F8BF
:4043800007E0BB792C3BDBB2184600F03FF800E000BF00BF0837BD4680BD00BF80B584B000AF78600123FB737B681B78BB730BE0BB7B184600F010F8FB7B7A6813441B78EE
:4043C000BB73FB7B0133FB73BB7B002BF0D100BF1037BD4680BD00BF80B584B000AF0346FB7100F02DF8FB791B09FB73FB7B184600F0E2F8FB7903F00F03FB73FB7B18460F
:4044000000F0DAF800BF1037BD4680BD80B584B000AF0346FB7100F013F8FB791B09FB73FB7B184600F004F9FB7903F00F03FB73FB7B184600F0FCF800BF1037BD4680BD00
:4044400080B582B000AF4FF4CA737B60554A554B1B78DBB223F07F03DBB21370524B1B78DBB223F00F03FB704F4AFB7843F00F03DBB213704D4B1B78DBB223F00F03FB70D1
:404480004A4AFB7813704A4B1B78DBB223F00F03FB70474AFB781370424A424B1B78DBB223F02003DBB213703E4A3E4B1B78DBB243F04003DBB21370002001F02BFA394AB7
:4044C000384B1B78DBB243F01003DBB21370012001F020FA374B1B78FB70324A314B1B78DBB223F01003DBB21370002001F012FAFB7803F00803FB702A4A2A4B1B78DBB2C7
:4045000043F01003DBB21370012001F003FA254A244B1B78DBB223F01003DBB21370FB78002B02D10A2001F0F5F97B68013B7B60FB78002B02D07B68002BBDD1194A194B9B
:404540001B78DBB223F04003DBB21370154A154B1B78DBB223F07F03DBB21370124A124B1B78DBB223F00F03DBB213700F4B1B78DBB223F00F03FB700C4AFB7843F00F030B
:40458000DBB213700A4B1B78DBB223F00F03FB70074AFB7843F00F03DBB2137000BF0837BD4680BD205100402251004023510040245100402151004080B582B000AF0346B1
:4045C000FB711A4A194B1B78DBB243F02003DBB21370164A154B1B78DBB223F04003DBB21370002001F096F9104A104B1B78DBB223F00F03DBB213700C490C4B1B78DAB246
:40460000FB791343DBB243F01003DBB20B70012001F080F9054A054B1B78DBB223F01003DBB2137000BF0837BD4680BD2051004080B582B000AF0346FB71154A144B1B784A
:40464000DBB223F06003DBB21370114A104B1B78DBB223F00F03DBB213700D490C4B1B78DAB2FB791343DBB243F01003DBB20B70012001F04FF9064A054B1B78DBB223F07E
:404680001003DBB2137000BF0837BD4680BD00BF2051004080B582B000AF104B1B78DBB223F03F03FB710D4AFB7943F02003DBB213700B4A0A4B1B78DBB243F00103DBB218
:4046C0001370F92000F01EF8F92000F02BF8C82000F038F800BF0837BD4680BD7D6400409D64004080B400AF054A054B1B78DBB263F07F03DBB2137000BFBD4680BC704708
:404700007D64004080B483B000AF0346FB71044AFB79137000BF0C37BD4680BC704700BF0D64004080B483B000AF0346FB71044AFB79137000BF0C37BD4680BC704700BF19
:404740004D64004080B483B000AF0346FB71044AFB79137000BF0C37BD4680BC704700BF2D64004080B582B002AF3C4B01221A703B4B00221A70102000F090FF102001F062
:4047800073F807211D2001F001F9364B04221A70354B00221A70354B00221A70344A344B1B78DBB243F01803DBB21370314B00221A70314B00221A70304B00221A70304B48
:4047C0000A221A702F4B00221A702F4B00221A702E4B5B221A702E4B5E221A702D4B00221A702D4B14221A700123009314234FF4004249F25B11052000F09EFC02230093D7
:4048000014234FF4004249F2DA01042000F094FC0323009310234FF4004249F2DA01042000F08AFC1D4A0D4B1B78DBB2013B1C499B000B449B7813701A4A084B1B78DBB20A
:40484000013B174931F823301380044B1B78DBB2184600F0A1FA00BFBD4680BD0F81FF1FFC81FF1F96580040975800409E580040075B004093580040885B0040895B004046
:4048800080580040815800408358004088580040895800408D580040014E00400E4E00400482FF1F0C4E004080B582B000AF01F0FBF80346FB71444B1B78BB71434A434BC5
:4048C0001B78DBB243F00103DBB213703F4A3F4B1B78DBB243F01003DBB213703C4A3C4B1B78DBB243F00103DBB21370384A384B1B78DBB243F01003DBB21370354A354BDA
:404900001B78DBB243F00203DBB21370324A324B1B78DBB243F00203DBB213702F4A2F4B1B78DBB243F00303DBB21370032000F0F1FF284A274B1B78DBB223F00203DBB2A6
:404940001370254A244B1B78DBB223F00203DBB21370234A224B1B78DBB243F00603DBB21370204B7A221A701F4A1F4B1B78DBB243F00103DBB213701C4A1C4B1B78DBB290
:4049800043F00103DBB21370194A194B1B78DBB243F00103DBB21370164A164B1B78DBB243F00103DBB21370134B4FF000521A60124B4FF000521A60FB79184601F078F856
:4049C00000BF0837BD4680BD0F81FF1FAA430040BA430040F8460040F9460040915800407758004082580040A1430040B1430040A2430040B243004080E200E000E100E05D
:404A000080B500AF084B1B78002B09D1074B1B78DBB2002B01D1FFF7A5FE034B01221A70FFF742FF00BF80BDFE81FF1FFF81FF1F80B582B000AF01F037F80346FB714D4AB4
:404A40004C4B1B78DBB223F00103DBB213704A4A494B1B78DBB243F00403DBB21370474A464B1B78DBB243F00203DBB21370444A434B1B78DBB243F00203DBB21370414A2D
:404A8000404B1B78DBB223F00303DBB213703E4A3D4B1B78DBB223F00803DBB21370032000F038FF354A354B1B78DBB223F00203DBB21370324A324B1B78DBB223F0020302
:404AC000DBB21370314A314B1B78DBB223F01003DBB213702D4A2D4B1B78DBB223F00103DBB213702A4A2A4B1B78DBB223F00103DBB21370264A264B1B78DBB223F01003CC
:404B0000DBB21370234A234B1B78DBB223F00603DBB21370204A204B1B78DBB223F00103DBB213701D4A1D4B1B78DBB223F00103DBB213701A4A1A4B1B78DBB223F0080305
:404B4000DBB21370174A174B1B78DBB223F00103DBB21370144A144B1B78DBB223F00103DBB21370FB79184600F0A2FF00BF0837BD4680BD004E0040014E0040F8460040DB
:404B8000F94600409158004092580040AA430040BA43004077580040A1430040B143004082580040A2430040B243004080B485B000AF0346FB710B4B1B78DBB223F00C0379
:404BC000FB73FB799B00DBB203F00C03DAB2FB7B1343FB73034AFB7B137000BF1437BD4680BC70479B58004080B400AF054A054B1B78DBB243F00103DBB2137000BFBD46BF
:404C000080BC7047004E004080B400AF054A054B1B78DBB223F00103DBB2137000BFBD4680BC7047004E004080B485B000AF0346FB710D4B1B78DBB2002B03D00B4B1B78BB
:404C4000FB7305E00A4B1B78DBB203F00103FB73FB7B012B02D0FB79002BEAD0FB7B18461437BD4680BC7047FD81FF1FFC81FF1F014E004080B483B000AF174B1B78DBB2C7
:404C800003F003037B717B79012B03D8134B1B88FB8011E0114B1B78DBB2FB80104B1B78DBB29BB21B029AB2FB881343FB807B79032B01D10B4B1B780B4B1B78DBB2002BAD
:404CC00002D00A4B00221A70B7F9063018460C37BD4680BC704700BF144E0040104E0040114E0040124E0040FD81FF1FFC81FF1F80B483B000AF224B1B78DBB203F0030353
:404D0000FB70FB78012B0BD81E4B1B889BB27B607B681B041C4A128892B213437B6020E0FB78022B12D1174B1B889BB27B607B681B04154A1278D2B213437B60134B1B789A
:404D4000DBB21B027A6813437B600AE00E4B1B889BB27B600B4B1B889BB21B047A6813437B600B4B1B78DBB2002B02D0094B00221A707B6818460C37BD4680BC704700BF44
:404D8000144E0040124E0040104E0040114E0040FD81FF1FFC81FF1F80B582B000AF0346FB71A14B00221A70FB79012B66D19F4B7E221A709E4B00221A709E4B0A221A70BB
:404DC0009D4B7F221A709D4B00221A709C4B7F221A709C4B00221A709B4B00221A709B4B00221A709A4B01221A709A4B50221A70994B13221A70994B2B221A70984B00226D
:404E00001A70984B44221A70974B48221A70974B02221A70964B01221A70964B11221A70954B19221A70954B97221A70442000F03BFA934B58221A70924B00221A70924BEA
:404E400005221A70914B01221A70914B00221A70904B0A221A70744B01221A708E4B4FF47A321A600121052000F05AFB0121232000F03CFC89491D2000F060FDFB79022B1B
:404E800066D16A4B7E221A70694B00221A70694B0A221A70684B7F221A70684B00221A70674B7F221A70674B00221A70664B00221A70664B00221A70654B01221A70654BD3
:404EC00050221A70644B27221A70644B2C221A70634B00221A70634B55221A70624B5A221A70624B05221A70614B02221A70614B12221A70604B28221A70604BEB221A700E
:404F0000442000F0D1F95E4B58221A705D4B00221A705D4B05221A705C4B01221A705C4B00221A705B4B0A221A703F4B01221A70594B4FF4FA221A600121012000F0F0FA25
:404F40000121072000F0D2FB55491D2000F0F6FCFB79032B63D1354B3A221A70344B04221A70344B07221A70334B00221A70334B00221A70324B3F221A70324B00221A70EC
:404F8000314B00221A70314B00221A70304B01221A70304B50221A702F4B27221A702F4B2C221A702E4B00221A702E4B55221A702D4B5A221A702D4B05221A702C4B012283
:404FC0001A702C4B11221A702B4B19221A702B4B97221A70442000F067F9294B58221A70284B00221A70284B05221A70274B01221A70274B00221A70264B0A221A70264BBB
:405000004FF4FA421A600121052000F089FA0121252000F06BFB23491D2000F08FFC00BF0837BD4680BD00BFFD81FF1F004E0040024E0040034E0040044E0040054E00406F
:40504000064E0040084E0040094E00400A4E0040144E0040845800408558004086580040875800408A5800408B5800408C5800408E5800408F5800409058004091580040B8
:4050800094580040955800409A5800409B5800409C5800409D580040FC83FF1F255300003D5300005553000080B582B000AF03460A46FB711346BB71FB79002B29D0FB79D0
:4050C000032B26D8164B1B78002B02D1154B01221A70154AFB791370FFF7AAFCFB791846FFF75AFE114AFB79013B11499B000B449B7813700F4AFB79013B0D4931F82330B3
:405100001380BB79012B07D1FFF77AFCFFF76CFD02E0002000F0D0FB00BF0837BD4680BDFE81FF1FFF81FF1F0F81FF1F0E4E00400482FF1F0C4E004090B587B000AF0446A6
:40514000084611461A462346FB710346BB800B467B801346BB7197F82830002B00F08B8097F82830032B00F28680FB79013B092B4AD801A252F823F0A15100000952000093
:4051800009520000A15100000952000009520000BB510000D551000009520000EF510000BB790F2B04D9374B1B78DBB2FB752EE0354B1B78DBB2FB7529E0BB790F2B04D950
:4051C000324B1B78DBB2FB7521E0314B1B78DBB2FB751CE0BB790F2B04D92E4B1B78DBB2FB7514E02C4B1B78DBB2FB750FE0BB790F2B04D9294B1B78DBB2FB7507E0284BB2
:405200001B78DBB2FB7502E00023FB7500BFBA8897F917305B0113443B617B883A6902FB03F3FB60FB68DB0BBB82BB790D2B12D8BA8ABB79C3F10E0342FA03F3BB8297F837
:405240002830013BBA790132D1B2164A9B0013440A469A7007E097F82830013B114A9B0013440F229A7097F82830013B0D49BA8A21F8232002E0002000F01EFB00BF1C373D
:40528000BD4690BD180100491C010049190100491D0100491A0100491E0100491B0100491F0100490482FF1F80B584B000AF0346FB7100F0F9FB0346FB73174A164B1B7811
:4052C000DBB243F00303DBB21370144A134B1B78DBB243F00303DBB21370114AFB791370032000F017FB0C4A0B4B1B78DBB223F00303DBB21370094A084B1B78DBB223F06E
:405300000303DBB21370FB7B184600F0D1FB00BF1037BD4680BD00BFF8460040F94600409258004080B500AFFFF76EFC024B01221A7000BF80BD00BFFC81FF1F80B500AF23
:40534000FFF762FC024B01221A7000BF80BD00BFFC81FF1F80B400AF00BFBD4680BC704780B400AF094A094B1B78DBB243F00203DBB21370064A064B1B78DBB243F0020306
:40538000DBB2137000BFBD4680BC7047A2430040B243004080B582B000AF104B1B78DBB223F03F03FB710D4AFB7943F02003DBB213700B4A0A4B1B78DBB243F00103DBB2BD
:4053C0001370192000F01EF8192000F02BF80C2000F038F800BF0837BD4680BD7C6400409C64004080B400AF054A054B1B78DBB263F07F03DBB2137000BFBD4680BC704779
:405400007C64004080B483B000AF0346FB71044AFB79137000BF0C37BD4680BC704700BF0C64004080B483B000AF0346FB71044AFB79137000BF0C37BD4680BC704700BF0E
:405440004C64004080B483B000AF0346FB71044AFB79137000BF0C37BD4680BC704700BF2C64004080B582B000AF786000F03CF8786800F009F8072000F018F800F028F88B
:4054800000BF0837BD4680BD80B485B000AF7860054B1B68FB60FB6850337A681A6000BF1437BD4680BC704708ED00E080B483B000AF0346FB71054AFB795B01DBB213707F
:4054C00000BF0C37BD4680BC704700BF04E400E080B400AF034B10221A6000BFBD4680BC704700BF00E100E080B400AF034B10221A6000BFBD4680BC704700BF80E100E089
:4055000080B400AF054B1B78DBB203F040039B09DBB21846BD4680BC704700BF8F45004080B584B000AF03460A46FB8013467B7100F0CEF80346FB7300F0A4F80346BB819B
:40554000FA88BB899A4200F08880464B1B78DBB203F00103FB72FB7B002B20D1BB89002B02D0FB88002B1AD1BB89002B0BD13E4AFB8813803D4A3D4B1B78DBB223F04003A2
:40558000DBB2137069E0394A384B1B78DBB243F04003DBB21370344AFB8813805DE0FB7A002B33D0324B00221A70324B01221A70314B00221A70314A304B1B78DBB203F0EE
:4055C0007F03DBB21370294B1B78DBB203F00803002B02D0FB88002B18D1294ABB891380234B07221A7000BF214B1B78DBB203F00103002BF8D11B4A1A4B1B78DBB223F055
:405600000103DBB213701A4B00221A70154B1B78DBB203F00103002B13D0194AFB881380134A7B79002B01D0032300E00123137000BF0F4B1B78DBB203F00103002BF8D129
:405640000BE0094AFB8813800649064B1B78DAB2FB7A1343DBB20B70FFE700BF1037BD4680BD00BFA243004080400040824000400140004010400040144000400840004005
:405680000240004080B400AF034B1B889BB21846BD4680BC704700BF8040004080B483B000AF0346FB710949084B1B78DBB25AB297F9073023F007035BB213435BB2DBB2B7
:4056C0000B7000BF0C37BD4680BC70478240004080B400AF044B1B78DBB203F00703DBB21846BD4680BC70478240004080B584B000AF03460A46FB8013467B7100F0CEF8DC
:405700000346FB7300F0A4F80346BB81FA88BB899A4200F08880464B1B78DBB203F00103FB72FB7B002B20D1BB89002B02D0FB88002B1AD1BB89002B0BD13E4AFB8813809D
:405740003D4A3D4B1B78DBB223F04003DBB2137069E0394A384B1B78DBB243F04003DBB21370344AFB8813805DE0FB7A002B33D0324B00221A70324B01221A70314B00223A
:405780001A70314A304B1B78DBB203F07F03DBB21370294B1B78DBB203F00803002B02D0FB88002B18D1294ABB891380234B07221A7000BF214B1B78DBB203F00103002BC6
:4057C000F8D11B4A1A4B1B78DBB223F00103DBB213701A4B00221A70154B1B78DBB203F00103002B13D0194AFB881380134A7B79002B01D0032300E00123137000BF0F4BAD
:405800001B78DBB203F00103002BF8D10BE0094AFB8813800649064B1B78DAB2FB7A1343DBB20B70FFE700BF1037BD4680BD00BFA1430040004100400241004001400040E3
:405840001440004010400040084000400240004080B400AF034B1B889BB21846BD4680BC704700BF0041004080B483B000AF0346FB710949084B1B78DBB25AB297F90730E2
:4058800023F007035BB213435BB2DBB20B7000BF0C37BD4680BC70470241004080B400AF044B1B78DBB203F00703DBB21846BD4680BC70470241004080B483B000AF0346C6
:4058C000FB7101BE00BF0C37BD4680BC704700BF80B582B000AF786008E00C4B1B68184600F0DAF87B68A3F500437B607B68B3F5004FF2D8064B1B687A6802FB03F31846B2
:4059000000F0CAF800BF0837BD4680BD1C81FF1F1481FF1F80B582B000AF0346FB80FB88054A127802FB03F3184600F0B5F800BF0837BD4680BD00BF1881FF1F80B584B0C8
:4059400000AF03463960FB710F4B1B68FB60FB791F2B02D90020FFF7AFFFFB7903F01F0310339B00FA6813441B68BB60FB7903F01F0310339B00FA6813443A681A60BB6878
:4059800018461037BD4680BD08ED00E080B582B000AF03460A46FB711346BB71BB79072B02D90020FFF788FFFB791F2B02D90020FFF782FFFB7903F01F0303F1604303F567
:4059C0006443BA795201D2B21A7000BF0837BD4680BD00BF80B483B000AF7860264B1B78DBB21A467B681A60244B1B78DBB21B027A6812681A437B681A60214B1B78DBB2E5
:405A00001B047A6812681A437B681A601D4B1B78DBB21B067A6812681A437B681A607B680433194A1278D2B21A60184B1B78DBB21A027B6804337968043109680A431A6066
:405A4000134B1B78DBB21A047B6804337968043109680A431A600F4B1B78DBB21A067B6804337968043109680A431A6000BF0C37BD4680BC704700BF0301004904010049CE
:405A8000EC46004002010049010100490001004905010049060100490230800803D000BF01380046FCD17047EFF3108072B6704780F31088704700BF80B582B000AF00239A
:405AC000BB711F4B1B78DBB203F00303012B02D0022B04D012E01A4B1B79FB7111E0184B1B79DBB203F07F02164913465B0013449B000B440A331B78FB7102E00023FB71B7
:405B000000BFFB79022B15D80F4B1A68FB7913441B78022B06D0032B09D1FCF7A3FE0346BB7107E0FCF732F90346BB7102E00023BB7100BFBB7918460837BD4680BD00BF90
:405B4000006000407C83FF1F7083FF1FF8B5C1F30A56A6F2FF35132D0A460B460446864611DC002D2EDB0F461F4929410A4225D04FF400232B413B4423EA01030026194661
:405B800034462046F8BD332D05DDB5F5806F1FD011462046F8BDA6F213464FF0FF3121FA06F63042F4D00122C5F1330502FA05F52D1828BF9B1825EA0606E0E70028D7D1CF
:405BC0001146E6E7013501F0004307D00026D6E702460B4601F0ECF80446D2E743F07F5343F440130026CAE7FFFF0F002DE9F04F8DB006460F4614461D4600F091F9DFF838
:405C00001093CDE9000199F90080B8F1FF3F46D022462B462046294601F016FD834600283DD132463B463046394601F00DFD8246002874D1304639460022002301F0D2FC33
:405C4000002833D0002200232046294601F0CAFC8346B8B1A94A012300200021CDF828A0CDE90467CDE90645CDE9080103920293B8F1000F6CD0A24B0022104619460DB091
:405C8000BDE8F08F2046294600F074FF38B1002200232046294601F0AFFC00286AD1DDE90023104619460DB0BDE8F08FDDE9000100F060FF804600287DD0DDE900014FF0B0
:405CC000000A4FF0000B52465B4601F08BFC0028E5D03046394600F04DFF0028DFD02046294600F047FF0028D9D099F90030834804210022022BCDE90467CDE90645CDE905
:405D000008AB039002910A9204D002A800F038FF002847D101F06CFD2223036042E0002200232046294601F05DFC0028B7D0744B724800220121B8F1020FCDF828B0CDE908
:405D40000467CDE90645CDE9082303900291A8D002A800F015FF00287ED00A9B43B301F047FDDDE908230A990160104619460DB0BDE8F08F614999F900300122CDF828B08D
:405D8000CDE90467CDE9064503910292002B68D05C490020022BCDE9080166D101F028FD212303600A9B1BB101F022FD0A9B0360DDE9082375E73046394600F0DBFE0028D5
:405DC0003FF47BAF2046294600F0D4FE00283FF474AFDDE900231046194601F035FC00286FD1464B99F90080039303230A90CDE90467CDE906450293B8F1000F3BD1DFF8BE
:405E000014B14FF0604A0022002330463946CDE908AB01F0F1FB00283FF477AF00223A4B2046294601F076F904460D4600F0B0FE02460B462046294601F0D4FB00283DD138
:405E4000324B4FF06042CDE9082399F90080B8F1020F7FF45AAF5DE701F0CAFC212303607BE700230024CDE9083402A800F088FE002897D192E7DFF8A0B04FF0000A0022A3
:405E8000002330463946CDE908AB01F0B5FB0028DDD000221C4B2046294601F03BF904460D4600F075FE02460B462046294601F099FB18B9134B0022CDE9082399F9008031
:405EC000C5E70E4A99F900900123CDF82880CDE90467CDE9064503920293B9F1000FC0D0002200231046194601F03EFAB9F1020FCDE908013FF452AFB7E700BF909D0000FB
:405F00000000F03F0000F0FF0000E03FFFFFEFC72081FF1FFFFFEF470000F07F000000002DE9F04F23F0004858EA020993B03CD0714C21F00046A64283460D460CDD06F1CA
:405F4000404606F5801656EA0B0038D183466B49584613B0BDE8F08F9A4696462BD0A045EDDC654CA04578D0002D0F468146CDE9002376DB0024BEF1000F27D15E4B98459E
:405F800000F08B805D4B984552D0BAF1804F00F0C9835B4B9A4519D1002D17DB4846394613B0BDE8F04F00F01DBDCB465846534913B0BDE8F08F0028C1D1B045D1DD514855
:405FC00013B0BDE8F04F00F0DDBD00244846394600F0CCFDBBF1000F1CD0ED0F013D54EA050370D0484B984540F3948003F10473984540F30D84454B9E4270DDBAF1000FE5
:4060000070DD3BA3D3E900231046194601F082F883469DE726B1394B25F040429A42DCD1BAF1000FC0F2B783002D08DB83468FE7BAF1000FC0F25E84CB46394688E706F135
:40604000404606F5801656EA040300F08384012CECD101F1004183467AE7BEF1000F83D06DE72B4B98452CDCA3F15473984581DD4FEA2853A3F2FF33142B40F35384C3F1B6
:4060800034032EFA03F202FA03F39E457FF472AF02F00102C2F102046DE706F1404303F5801353EA0B0300F03A83184B9E4240F36783BAF1000F15DBDDE900349B462146D8
:4060C00046E7022457E74A4648463B46394600F06DFE02460B4601F047F9834638E7BAF1000F8EDB4FF0000B594631E7AFF300809C7500883CE4377E0000F07F0000F03F92
:406100000000E03F949D00000000E041FFFFEF3FFFFF3F43B6F5801F4FF0000205DAD04B00F0F8FF0E466FF03402DFF844E33315C6F31306A3F2FF3346F07F57764503EB59
:40614000020A47F4401740F3C983C64B00229E4240F304840023CDE90823CDE90C23C24B0022CDE906230AF1010AA7F5801700263946DDE90623CDE90A0100F017FEDDE9E4
:40618000062380468946DDE90A0100F011FE02460B460020B44901F0E7F80A4601461346CDE90E1202464946404600F0B3FF8C4683467B1043F0005303F50023991900206D
:4061C000CDE904BC06460F464FF0000B6146584632463B46CDE910BCCDE9020100F09AFF02460B464046494600F0E0FDDDE90623804689463046394600F0D8FD02460B46EA
:40620000DDE90A0100F0D2FDDDE9022300F082FF02460B464046494600F0C8FDDDE90E2300F078FFDDE90478CDE906013A4643463846414600F06EFF77A3D3E90023064602
:406240000F4600F067FF76A3D3E9002300F0B0FD32463B4600F05EFF73A3D3E9002300F0A7FD32463B4600F055FF71A3D3E9002300F09EFD32463B4600F04CFF6EA3D3E953
:40628000002300F095FD32463B4600F043FF6CA3D3E9002300F08CFD3246804689463B463046394600F036FF02460B464046494600F030FFDDE9022306460F46DDE90401DB
:4062C00000F076FDDDE9062300F024FF32463B4600F06EFDDDE902678046894632463B463046394600F016FF0022604BCDE90A0100F05EFD42464B4600F05AFDDDE910BC63
:406300000F46DDE902015A463B46CDE90EBC5E4600F000FF0022CDE90201544B3046394600F044FDDDE90A2300F040FD02460B464046494600F03AFDDDE9042300F0EAFEB1
:40634000324680468946DDE906013B4600F0E2FE02460B464046494600F02AFD8046894602460B46DDE9020100F022FDDDE90EBC35A3D3E900235846CDE906BC5E460F46D1
:4063800000F0C8FEDDE90223CDE904013046394600F00CFD02460B464046494600F006FD2BA3D3E9002300F0B5FE2BA3D3E90023804689463046394600F0ACFE02460B4638
:4063C0004046494600F0F4FCDDE90C2300F0F0FC80465046894600F037FE06460F46DDE9040142464B4600F0E3FCDDE9082300F0DFFC32463B4600F0DBFCDDE906BC3246B7
:4064000058463B46DA468B4600F0D0FCDDE9082330E000BFAFF30080EF4E454A287ECA3F65DBC9934A86CD3F01411DA96074D13F4D268F515555D53FFFAB6FDBB66DDB3F8D
:40644000033333333333E33F000000E009C7EE3FFD033ADC09C7EE3FF5015B14E02F3EBE0000404379B60B000000F03F000008408E98030000F09AFCDDE9042300F096FC46
:4064800002460B464046494600F090FC80468946DDE90012013C54EA050314BFD64CD74C0023CDE904340B461446CDE9023400230293DDE9024508462B461146224600F0CF
:4064C00075FC52465B4600F025FEDDE9002306460F464046494600F01DFE02460B463046394600F065FC06460F4622462B4650465946CDE9006700F00DFE0B460246804630
:4065000089463046394600F053FCBD4B064699420D460C4640F30E8101F13F4303F5E003034340F0F081A0A3D3E90023DDE9000100F03EFC424682468B464B4630462946E2
:4065400000F034FC02460B465046594601F072F8002840F0D8812F463B154FF48012A3F2FE3342FA03F32344C3F30A52A54EA2F2FF321641C3F3130B0020C2F1140523EA3A
:4065800006014BF4801B02460B46002C4BFA05FB40464946B8BFCBF1000B00F007FC02460B4680468946DDE9000100F001FC4FEA0B5A00247EA3D3E9002320460D4600F05D
:4065C000A9FD424606460F464B462046294600F0EDFB02460B46DDE9000100F0E7FB76A3D3E9002300F096FD75A3D3E90023804689462046294600F08DFD02460B464046E7
:40660000494600F0D5FB8046894602460B463046394600F0CDFB32463B4604460D4600F0C5FB02460B464046494600F0BFFB2246804689462B462046294600F06BFD62A3F2
:40664000D3E9002306460F4600F064FD60A3D3E9002300F0ABFB32463B4600F05BFD5EA3D3E9002300F0A4FB32463B4600F052FD5BA3D3E9002300F099FB32463B4600F09F
:4066800049FD59A3D3E9002300F092FB32463B4600F040FD02460B462046294600F086FB06460F4602460B462046294600F032FD0022CDE900014FF080433046394600F049
:4066C00075FB02460B46DDE9000100F04DFE424606460F464B462046294600F01BFD42464B4600F065FB02460B463046394600F05DFB22462B4600F059FB02460B460020E3
:406700003D4900F053FB8A44BAF5801FC0F237815146DDE9042300F0FDFC834618E4F346354915E44A4648463B46394600F0F2FC83460DE4344B21F000479F4240F301810A
:40674000324B0B4403430CD142464B4600F02EFB02460B46DDE9000100F058FF00283FF4FBAE23A3D3E90023DDE9040100F0D2FC1FA3D3E9002300F0CDFC8346FFF7E8BB63
:40678000BAF1000FBFF6AEACDDE900349B4604F10041FFF7DDBB02460B460020164900F0E3FD41E4AFF30080FE822B654715973C00000000432EE63FEF39FAFE422EE63FB8
:4067C000396CA80C615C20BED0A4BE726937663EF16BD2C541BDBB3E2CDE25AF6A56113F93BDBE166CC1663F3E5555555555C53F59F3F8C21F6EA5010000F03F0000F0BFED
:40680000FFFF8F40FFFF0F00FFCB904000346F3F6F4B9E427FF763AC6E4B9E423FF7EEAB00226C4B00F0C2FA5BA3D3E9002306460F4600F06FFC5AA3D3E9002380468946AC
:406840003046394600F066FC002282468B46624B3046394600F05EFC02460B4652A1D1E9000100F0A3FA32463B4600F053FC02460B460020594900F099FA3246CDE902010F
:406880003B463046394600F045FC02460B46DDE9020100F03FFC46A3D3E9002300F03AFC02460B465046594600F080FA02460B4606460F464046494600F07AFA42464B46B2
:4068C000002082468B4600F071FA02460B463046394600F06BFA80468946D9E500220023CDE90823CDE90C233A4B00220026CDE906233DE44A463B460020364900F034FDA5
:406900008346FFF725BB2CA3D3E90023DDE9040100F000FC28A3D3E9002300F0FBFB8346FFF716BBBEF1000F7FF44FABC3F1140348FA03F202FA03F3984524D07446FFF793
:4069400021BB264B9F423FF707AEDDE902349A469B462EE602460B46FFF7B9BB204B4FF48026CDE9062316A3D3E90023CDE9082315A3D3E90023CDE90C23FFF7F9BB5A46B8
:4069800000F096F9C5E602F00102C2F10204FFF7F9BA00BFAFF30080000000604715F73F44DF5DF80BAE543E555555555555D53FFE822B654715F73F9C7500883CE4377E9E
:4069C0000000004003B8E23F06D0CF43EBFD4C3EFEFFEF3F0000F03F0000D03F0000E03F0000F83F2DE9F0415F4E0C46B6460E407645054600F0988000290B46024674DDB1
:406A00005FEA215E7FD0AEF2FF3EC3F313031EF0010F43F4801363D100273E4603EBD2710B444FEA6E0E520016204FF4001174189C424FEAD2754FEA420202DC1B1B6618C5
:406A40000F44013805EB43034FEA5101EFD1844620244FF0004109E020D003EBD275013C4FEA51012B444FEA420220D09E4201EB0C05F1DA002D05EB010C09DBB046954246
:406A8000A3EB060300D9013B4646521B0844E4E7BCF1000FF2DB06F10108F0E7954217D8002D05EB010C49DB98460023ECE7134310D140087B1003F17F5303F50013FA07F6
:406AC00003EB0E57394648BF40F00040BDE8F0813346C2E7411C35D000F001031844E8E75B0003EBD273520096E721F000460643ECD079BB8E46D30AAEF1150E5205002BB2
:406B0000F9D0DD0221D4002100E001465B00DC0201F10100F9D5C0F1200422FA04F42343C1EB0E0E82406EE702460B4600F0F2FA2A46234600F03CF9BDE8F081BCF1000F03
:406B4000A9DAB1E701372046B4E720244FF0FF310020E2E702460B4600F028F902460B4600F002FCB2E700BF0000F07F21F00041704700BF41F0004101F58010C00F7047E7
:406B80000020704700200149704700BF0000F87FF0B5C1F30A5EAEF2FF36132E83B002460B460C464FEAD17507462EDC002E49DB3D49314103EA010010432BD049080B40BA
:406BC00053EA02070CD04FF48023132E24EA010143FA06F444EA01040CBF4FF000470027324B214603EBC505D5E90045384622462B4600F0DDF8CDE90001DDE900012246B9
:406C00002B4600F0D3F803B0F0BD332E06DDB6F5806F45D01046194603B0F0BDAEF2134E4FF0FF3121FA0EF10842F3D049080842D6D04FF0804320EA010143FA0EFE4EEA59
:406C40000107CDE721F0004101431946E4D0C3F3130343EA000CCCF1000343EA0C0C134B640C4FEA1C3C0CF4002C03EBC5036404D3E900674CEA040132463B4600F098F825
:406C8000CDE90001DDE9000132463B4600F08EF8024621F0004141EAC57310461946BBE700F086F8B8E700BFFFFF0F00989D0000F8B5C1F30A5604460D460B46174606BBB8
:406CC00021F00043034325D000222F4B00F022FA2E4A044697420D460B462ADBC1F30A56363E40F2FE723E44964228DC002E12DD23F0FF4323F4E00343EA065520462946C8
:406D0000F8BD40F2FF729642EBD102460B4600F04FF8F8BDF8BD16F1350F1DDA4CF250339F420CDC14A1D1E9000122462B4600F031F811A3D3E9002300F0ECF9F8BD22467A
:406D40000FA1D1E900012B4600F024F80CA3D3E9002300F0DFF9F8BD23F0FF4323F4E003363643EA0655204629460022084B00F0D1F9F8BDAFF3008059F3F8C21F6EA501C9
:406D80009C7500883CE4377E00005043B03CFFFF0000903C03F0004321F0004242EA0301704700BF81F0004102E000BF83F0004330B54FEA41044FEA430594EA050F08BFA7
:406DC00090EA020F1FBF54EA000C55EA020C7FEA645C7FEA655C00F0E2804FEA5454D4EB5555B8BF6D420CDD2C4480EA020281EA030382EA000083EA010180EA020281EA92
:406E00000303362D88BF30BD11F0004F4FEA01314FF4801C4CEA113102D0404261EB410113F0004F4FEA03334CEA133302D0524263EB430394EA050F00F0A780A4F1010447
:406E4000D5F1200E0DDB02FA0EFC22FA05F2801841F1000103FA0EF2801843FA05F359410EE0A5F120050EF1200E012A03FA0EFC28BF4CF0020C43FA05F3C01851EBE37118
:406E800001F0004507D54FF0000EDCF1000C7EEB00006EEB0101B1F5801F1BD3B1F5001F0CD349085FEA30004FEA3C0C04F101044FEA445212F5800F80F09A80BCF1004FCF
:406EC00008BF5FEA500C50F1000041EB045141EA050130BD5FEA4C0C404141EB010111F4801FA4F10104E9D191F0000F04BF01460020B1FA81F308BF2033A3F10B03B3F1C5
:406F000020020CDA0C3208DD02F1140CC2F10C0201FA0CF021FA02F10CE002F11402D8BFC2F1200C01FA02F120FA0CFCDCBF41EA0C019040E41AA2BF01EB0451294330BD36
:406F40006FEA04041F3C1CDA0C340EDC04F11404C4F1200220FA04F001FA02F340EA030021FA04F345EA030130BDC4F10C04C4F1200220FA02F001FA04F340EA03002946BE
:406F800030BD21FA04F0294630BD94F0000F83F4801306BF81F480110134013D4EE77FEA645C18BF7FEA655C29D094EA050F08BF90EA020F05D054EA000C04BF19461046CB
:406FC00030BD91EA030F1EBF0021002030BD5FEA545C05D14000494128BF41F0004130BD14F580043CBF01F5801130BD01F0004545F0FE4141F470014FF0000030BD7FEA4C
:40700000645C1ABF194610467FEA655C1CBF0B46024650EA013406BF52EA033591EA030F41F4002130BD00BF90F0000F04BF0021704730B54FF4806404F132044FF0000588
:407040004FF0000150E700BF90F0000F04BF0021704730B54FF4806404F1320410F0004548BF40424FF000013EE700BF42004FEAE2014FEA31014FEA02701FBF12F07F4371
:4070800093F07F4F81F06051704792F0000F14BF93F07F4F704730B54FF4607401F0004521F0004120E700BF50EA010208BF704730B54FF000050AE050EA010208BF704767
:4070C00030B511F0004502D5404261EB41014FF4806404F132045FEA915C3FF4DCAE4FF003025FEADC0C18BF03325FEADC0C18BF033202EBDC02C2F1200300FA03FC20FAC7
:4071000002F001FA03FE40EA0E0021FA02F11444C1E600BF70B54FF0FF0C4CF4E06C1CEA11541DBF1CEA135594EA0C0F95EA0C0F00F0DEF82C4481EA030621EA4C5123EA1B
:407140004C5350EA013518BF52EA033541F4801143F4801338D0A0FB02CE4FF00005E1FB02E506F00042E0FB03E54FF00006E1FB03569CF0000F18BF4EF0010EA4F1FF04DF
:40718000B6F5007F64F5407404D25FEA4E0E6D4146EB060642EAC62141EA55514FEAC52040EA5E504FEACE2EB4F1FD0C88BFBCF5E06F1ED8BEF1004F08BF5FEA500E50F18B
:4071C000000041EB045170BD06F0004646EA010140EA020081EA0301B4EB5C04C2BFD4EB0C0541EA045170BD41F480114FF0000E013C00F3AB8014F1360FDEBF002001F075
:40720000004170BDC4F10004203C35DA0C341BDC04F11404C4F1200500FA05F320FA04F001FA05F240EA020001F0004221F0004110EBD37021FA04F642EB06015EEA430EDB
